{
  "contractName": "TokenRepository",
  "abi": [
    {
      "constant": true,
      "inputs": [],
      "name": "name",
      "outputs": [
        {
          "name": "",
          "type": "string"
        }
      ],
      "payable": false,
      "stateMutability": "view",
      "type": "function"
    },
    {
      "constant": true,
      "inputs": [],
      "name": "totalSupply",
      "outputs": [
        {
          "name": "",
          "type": "uint256"
        }
      ],
      "payable": false,
      "stateMutability": "view",
      "type": "function"
    },
    {
      "constant": true,
      "inputs": [
        {
          "name": "",
          "type": "address"
        }
      ],
      "name": "balances",
      "outputs": [
        {
          "name": "",
          "type": "uint256"
        }
      ],
      "payable": false,
      "stateMutability": "view",
      "type": "function"
    },
    {
      "constant": true,
      "inputs": [],
      "name": "decimals",
      "outputs": [
        {
          "name": "",
          "type": "uint256"
        }
      ],
      "payable": false,
      "stateMutability": "view",
      "type": "function"
    },
    {
      "constant": true,
      "inputs": [
        {
          "name": "",
          "type": "address"
        },
        {
          "name": "",
          "type": "address"
        }
      ],
      "name": "allowed",
      "outputs": [
        {
          "name": "",
          "type": "uint256"
        }
      ],
      "payable": false,
      "stateMutability": "view",
      "type": "function"
    },
    {
      "constant": false,
      "inputs": [],
      "name": "renounceOwnership",
      "outputs": [],
      "payable": false,
      "stateMutability": "nonpayable",
      "type": "function"
    },
    {
      "constant": true,
      "inputs": [],
      "name": "owner",
      "outputs": [
        {
          "name": "",
          "type": "address"
        }
      ],
      "payable": false,
      "stateMutability": "view",
      "type": "function"
    },
    {
      "constant": true,
      "inputs": [],
      "name": "symbol",
      "outputs": [
        {
          "name": "",
          "type": "string"
        }
      ],
      "payable": false,
      "stateMutability": "view",
      "type": "function"
    },
    {
      "constant": false,
      "inputs": [
        {
          "name": "_newOwner",
          "type": "address"
        }
      ],
      "name": "transferOwnership",
      "outputs": [],
      "payable": false,
      "stateMutability": "nonpayable",
      "type": "function"
    },
    {
      "anonymous": false,
      "inputs": [
        {
          "indexed": true,
          "name": "previousOwner",
          "type": "address"
        }
      ],
      "name": "OwnershipRenounced",
      "type": "event"
    },
    {
      "anonymous": false,
      "inputs": [
        {
          "indexed": true,
          "name": "previousOwner",
          "type": "address"
        },
        {
          "indexed": true,
          "name": "newOwner",
          "type": "address"
        }
      ],
      "name": "OwnershipTransferred",
      "type": "event"
    },
    {
      "constant": false,
      "inputs": [
        {
          "name": "_name",
          "type": "string"
        }
      ],
      "name": "setName",
      "outputs": [],
      "payable": false,
      "stateMutability": "nonpayable",
      "type": "function"
    },
    {
      "constant": false,
      "inputs": [
        {
          "name": "_symbol",
          "type": "string"
        }
      ],
      "name": "setSymbol",
      "outputs": [],
      "payable": false,
      "stateMutability": "nonpayable",
      "type": "function"
    },
    {
      "constant": false,
      "inputs": [
        {
          "name": "_decimals",
          "type": "uint256"
        }
      ],
      "name": "setDecimals",
      "outputs": [],
      "payable": false,
      "stateMutability": "nonpayable",
      "type": "function"
    },
    {
      "constant": false,
      "inputs": [
        {
          "name": "_totalSupply",
          "type": "uint256"
        }
      ],
      "name": "setTotalSupply",
      "outputs": [],
      "payable": false,
      "stateMutability": "nonpayable",
      "type": "function"
    },
    {
      "constant": false,
      "inputs": [
        {
          "name": "_owner",
          "type": "address"
        },
        {
          "name": "_value",
          "type": "uint256"
        }
      ],
      "name": "setBalances",
      "outputs": [],
      "payable": false,
      "stateMutability": "nonpayable",
      "type": "function"
    },
    {
      "constant": false,
      "inputs": [
        {
          "name": "_owner",
          "type": "address"
        },
        {
          "name": "_spender",
          "type": "address"
        },
        {
          "name": "_value",
          "type": "uint256"
        }
      ],
      "name": "setAllowed",
      "outputs": [],
      "payable": false,
      "stateMutability": "nonpayable",
      "type": "function"
    },
    {
      "constant": false,
      "inputs": [
        {
          "name": "_value",
          "type": "uint256"
        }
      ],
      "name": "increaseSupply",
      "outputs": [],
      "payable": false,
      "stateMutability": "nonpayable",
      "type": "function"
    },
    {
      "constant": false,
      "inputs": [
        {
          "name": "_owner",
          "type": "address"
        },
        {
          "name": "_value",
          "type": "uint256"
        }
      ],
      "name": "increaseBalance",
      "outputs": [],
      "payable": false,
      "stateMutability": "nonpayable",
      "type": "function"
    },
    {
      "constant": false,
      "inputs": [
        {
          "name": "_owner",
          "type": "address"
        },
        {
          "name": "_spender",
          "type": "address"
        },
        {
          "name": "_value",
          "type": "uint256"
        }
      ],
      "name": "increaseAllowed",
      "outputs": [],
      "payable": false,
      "stateMutability": "nonpayable",
      "type": "function"
    },
    {
      "constant": false,
      "inputs": [
        {
          "name": "_value",
          "type": "uint256"
        }
      ],
      "name": "decreaseSupply",
      "outputs": [],
      "payable": false,
      "stateMutability": "nonpayable",
      "type": "function"
    },
    {
      "constant": false,
      "inputs": [
        {
          "name": "_owner",
          "type": "address"
        },
        {
          "name": "_value",
          "type": "uint256"
        }
      ],
      "name": "decreaseBalance",
      "outputs": [],
      "payable": false,
      "stateMutability": "nonpayable",
      "type": "function"
    },
    {
      "constant": false,
      "inputs": [
        {
          "name": "_owner",
          "type": "address"
        },
        {
          "name": "_spender",
          "type": "address"
        },
        {
          "name": "_value",
          "type": "uint256"
        }
      ],
      "name": "decreaseAllowed",
      "outputs": [],
      "payable": false,
      "stateMutability": "nonpayable",
      "type": "function"
    },
    {
      "constant": false,
      "inputs": [
        {
          "name": "_from",
          "type": "address"
        },
        {
          "name": "_to",
          "type": "address"
        },
        {
          "name": "_value",
          "type": "uint256"
        }
      ],
      "name": "transferBalance",
      "outputs": [],
      "payable": false,
      "stateMutability": "nonpayable",
      "type": "function"
    }
  ],
  "bytecode": "0x6080604052336000806101000a81548173ffffffffffffffffffffffffffffffffffffffff021916908373ffffffffffffffffffffffffffffffffffffffff16021790555061178d806100536000396000f3fe608060405234801561001057600080fd5b506004361061015f576000357c0100000000000000000000000000000000000000000000000000000000900480638c8885c8116100d5578063b84c824611610099578063b84c82461461067a578063b921e16314610735578063c47f002714610763578063f2fde38b1461081e578063f7ea7a3d14610862578063ff056949146108905761015f565b80638c8885c8146104e35780638da5cb5b1461051157806395d89b411461055b57806398e52f9a146105de578063a606b94a1461060c5761015f565b8063313ce56711610127578063313ce5671461031957806333dd1b8a146103375780635b86f599146103a55780635c658165146103f357806363a97d3f1461046b578063715018a6146104d95761015f565b806306fdde031461016457806318160ddd146101e757806326188a3f1461020557806327e235e31461027357806328e69b16146102cb575b600080fd5b61016c6108de565b6040518080602001828103825283818151815260200191508051906020019080838360005b838110156101ac578082015181840152602081019050610191565b50505050905090810190601f1680156101d95780820380516001836020036101000a031916815260200191505b509250505060405180910390f35b6101ef61097c565b6040518082815260200191505060405180910390f35b6102716004803603606081101561021b57600080fd5b81019080803573ffffffffffffffffffffffffffffffffffffffff169060200190929190803573ffffffffffffffffffffffffffffffffffffffff16906020019092919080359060200190929190505050610982565b005b6102b56004803603602081101561028957600080fd5b81019080803573ffffffffffffffffffffffffffffffffffffffff169060200190929190505050610af1565b6040518082815260200191505060405180910390f35b610317600480360360408110156102e157600080fd5b81019080803573ffffffffffffffffffffffffffffffffffffffff16906020019092919080359060200190929190505050610b09565b005b610321610bac565b6040518082815260200191505060405180910390f35b6103a36004803603606081101561034d57600080fd5b81019080803573ffffffffffffffffffffffffffffffffffffffff169060200190929190803573ffffffffffffffffffffffffffffffffffffffff16906020019092919080359060200190929190505050610bb2565b005b6103f1600480360360408110156103bb57600080fd5b81019080803573ffffffffffffffffffffffffffffffffffffffff16906020019092919080359060200190929190505050610c93565b005b6104556004803603604081101561040957600080fd5b81019080803573ffffffffffffffffffffffffffffffffffffffff169060200190929190803573ffffffffffffffffffffffffffffffffffffffff169060200190929190505050610d87565b6040518082815260200191505060405180910390f35b6104d76004803603606081101561048157600080fd5b81019080803573ffffffffffffffffffffffffffffffffffffffff169060200190929190803573ffffffffffffffffffffffffffffffffffffffff16906020019092919080359060200190929190505050610dac565b005b6104e1610f1b565b005b61050f600480360360208110156104f957600080fd5b810190808035906020019092919050505061101d565b005b610519611082565b604051808273ffffffffffffffffffffffffffffffffffffffff1673ffffffffffffffffffffffffffffffffffffffff16815260200191505060405180910390f35b6105636110a7565b6040518080602001828103825283818151815260200191508051906020019080838360005b838110156105a3578082015181840152602081019050610588565b50505050905090810190601f1680156105d05780820380516001836020036101000a031916815260200191505b509250505060405180910390f35b61060a600480360360208110156105f457600080fd5b8101908080359060200190929190505050611145565b005b6106786004803603606081101561062257600080fd5b81019080803573ffffffffffffffffffffffffffffffffffffffff169060200190929190803573ffffffffffffffffffffffffffffffffffffffff169060200190929190803590602001909291905050506111be565b005b6107336004803603602081101561069057600080fd5b81019080803590602001906401000000008111156106ad57600080fd5b8201836020820111156106bf57600080fd5b803590602001918460018302840111640100000000831117156106e157600080fd5b91908080601f016020809104026020016040519081016040528093929190818152602001838380828437600081840152601f19601f820116905080830192505050505050509192919290505050611232565b005b6107616004803603602081101561074b57600080fd5b81019080803590602001909291905050506112a7565b005b61081c6004803603602081101561077957600080fd5b810190808035906020019064010000000081111561079657600080fd5b8201836020820111156107a857600080fd5b803590602001918460018302840111640100000000831117156107ca57600080fd5b91908080601f016020809104026020016040519081016040528093929190818152602001838380828437600081840152601f19601f820116905080830192505050505050509192919290505050611320565b005b6108606004803603602081101561083457600080fd5b81019080803573ffffffffffffffffffffffffffffffffffffffff169060200190929190505050611395565b005b61088e6004803603602081101561087857600080fd5b810190808035906020019092919050505061152e565b005b6108dc600480360360408110156108a657600080fd5b81019080803573ffffffffffffffffffffffffffffffffffffffff16906020019092919080359060200190929190505050611593565b005b60018054600181600116156101000203166002900480601f0160208091040260200160405190810160405280929190818152602001828054600181600116156101000203166002900480156109745780601f1061094957610100808354040283529160200191610974565b820191906000526020600020905b81548152906001019060200180831161095757829003601f168201915b505050505081565b60045481565b6000809054906101000a900473ffffffffffffffffffffffffffffffffffffffff1673ffffffffffffffffffffffffffffffffffffffff163373ffffffffffffffffffffffffffffffffffffffff161415156109dd57600080fd5b610a6c81600660008673ffffffffffffffffffffffffffffffffffffffff1673ffffffffffffffffffffffffffffffffffffffff16815260200190815260200160002060008573ffffffffffffffffffffffffffffffffffffffff1673ffffffffffffffffffffffffffffffffffffffff1681526020019081526020016000205461168790919063ffffffff16565b600660008573ffffffffffffffffffffffffffffffffffffffff1673ffffffffffffffffffffffffffffffffffffffff16815260200190815260200160002060008473ffffffffffffffffffffffffffffffffffffffff1673ffffffffffffffffffffffffffffffffffffffff16815260200190815260200160002081905550505050565b60056020528060005260406000206000915090505481565b6000809054906101000a900473ffffffffffffffffffffffffffffffffffffffff1673ffffffffffffffffffffffffffffffffffffffff163373ffffffffffffffffffffffffffffffffffffffff16141515610b6457600080fd5b80600560008473ffffffffffffffffffffffffffffffffffffffff1673ffffffffffffffffffffffffffffffffffffffff168152602001908152602001600020819055505050565b60035481565b6000809054906101000a900473ffffffffffffffffffffffffffffffffffffffff1673ffffffffffffffffffffffffffffffffffffffff163373ffffffffffffffffffffffffffffffffffffffff16141515610c0d57600080fd5b80600660008573ffffffffffffffffffffffffffffffffffffffff1673ffffffffffffffffffffffffffffffffffffffff16815260200190815260200160002060008473ffffffffffffffffffffffffffffffffffffffff1673ffffffffffffffffffffffffffffffffffffffff16815260200190815260200160002081905550505050565b6000809054906101000a900473ffffffffffffffffffffffffffffffffffffffff1673ffffffffffffffffffffffffffffffffffffffff163373ffffffffffffffffffffffffffffffffffffffff16141515610cee57600080fd5b610d4081600560008573ffffffffffffffffffffffffffffffffffffffff1673ffffffffffffffffffffffffffffffffffffffff1681526020019081526020016000205461168790919063ffffffff16565b600560008473ffffffffffffffffffffffffffffffffffffffff1673ffffffffffffffffffffffffffffffffffffffff168152602001908152602001600020819055505050565b6006602052816000526040600020602052806000526040600020600091509150505481565b6000809054906101000a900473ffffffffffffffffffffffffffffffffffffffff1673ffffffffffffffffffffffffffffffffffffffff163373ffffffffffffffffffffffffffffffffffffffff16141515610e0757600080fd5b610e9681600660008673ffffffffffffffffffffffffffffffffffffffff1673ffffffffffffffffffffffffffffffffffffffff16815260200190815260200160002060008573ffffffffffffffffffffffffffffffffffffffff1673ffffffffffffffffffffffffffffffffffffffff168152602001908152602001600020546116a390919063ffffffff16565b600660008573ffffffffffffffffffffffffffffffffffffffff1673ffffffffffffffffffffffffffffffffffffffff16815260200190815260200160002060008473ffffffffffffffffffffffffffffffffffffffff1673ffffffffffffffffffffffffffffffffffffffff16815260200190815260200160002081905550505050565b6000809054906101000a900473ffffffffffffffffffffffffffffffffffffffff1673ffffffffffffffffffffffffffffffffffffffff163373ffffffffffffffffffffffffffffffffffffffff16141515610f7657600080fd5b6000809054906101000a900473ffffffffffffffffffffffffffffffffffffffff1673ffffffffffffffffffffffffffffffffffffffff167ff8df31144d9c2f0f6b59d69b8b98abd5459d07f2742c4df920b25aae33c6482060405160405180910390a260008060006101000a81548173ffffffffffffffffffffffffffffffffffffffff021916908373ffffffffffffffffffffffffffffffffffffffff160217905550565b6000809054906101000a900473ffffffffffffffffffffffffffffffffffffffff1673ffffffffffffffffffffffffffffffffffffffff163373ffffffffffffffffffffffffffffffffffffffff1614151561107857600080fd5b8060038190555050565b6000809054906101000a900473ffffffffffffffffffffffffffffffffffffffff1681565b60028054600181600116156101000203166002900480601f01602080910402602001604051908101604052809291908181526020018280546001816001161561010002031660029004801561113d5780601f106111125761010080835404028352916020019161113d565b820191906000526020600020905b81548152906001019060200180831161112057829003601f168201915b505050505081565b6000809054906101000a900473ffffffffffffffffffffffffffffffffffffffff1673ffffffffffffffffffffffffffffffffffffffff163373ffffffffffffffffffffffffffffffffffffffff161415156111a057600080fd5b6111b5816004546116a390919063ffffffff16565b60048190555050565b6000809054906101000a900473ffffffffffffffffffffffffffffffffffffffff1673ffffffffffffffffffffffffffffffffffffffff163373ffffffffffffffffffffffffffffffffffffffff1614151561121957600080fd5b6112238382611593565b61122d8282610c93565b505050565b6000809054906101000a900473ffffffffffffffffffffffffffffffffffffffff1673ffffffffffffffffffffffffffffffffffffffff163373ffffffffffffffffffffffffffffffffffffffff1614151561128d57600080fd5b80600290805190602001906112a39291906116bc565b5050565b6000809054906101000a900473ffffffffffffffffffffffffffffffffffffffff1673ffffffffffffffffffffffffffffffffffffffff163373ffffffffffffffffffffffffffffffffffffffff1614151561130257600080fd5b6113178160045461168790919063ffffffff16565b60048190555050565b6000809054906101000a900473ffffffffffffffffffffffffffffffffffffffff1673ffffffffffffffffffffffffffffffffffffffff163373ffffffffffffffffffffffffffffffffffffffff1614151561137b57600080fd5b80600190805190602001906113919291906116bc565b5050565b6000809054906101000a900473ffffffffffffffffffffffffffffffffffffffff1673ffffffffffffffffffffffffffffffffffffffff163373ffffffffffffffffffffffffffffffffffffffff161415156113f057600080fd5b600073ffffffffffffffffffffffffffffffffffffffff168173ffffffffffffffffffffffffffffffffffffffff1614151515611470576040517f08c379a0000000000000000000000000000000000000000000000000000000008152600401808060200182810382526000815260200160200191505060405180910390fd5b8073ffffffffffffffffffffffffffffffffffffffff166000809054906101000a900473ffffffffffffffffffffffffffffffffffffffff1673ffffffffffffffffffffffffffffffffffffffff167f8be0079c531659141344cd1fd0a4f28419497f9722a3daafe3b4186f6b6457e060405160405180910390a3806000806101000a81548173ffffffffffffffffffffffffffffffffffffffff021916908373ffffffffffffffffffffffffffffffffffffffff16021790555050565b6000809054906101000a900473ffffffffffffffffffffffffffffffffffffffff1673ffffffffffffffffffffffffffffffffffffffff163373ffffffffffffffffffffffffffffffffffffffff1614151561158957600080fd5b8060048190555050565b6000809054906101000a900473ffffffffffffffffffffffffffffffffffffffff1673ffffffffffffffffffffffffffffffffffffffff163373ffffffffffffffffffffffffffffffffffffffff161415156115ee57600080fd5b61164081600560008573ffffffffffffffffffffffffffffffffffffffff1673ffffffffffffffffffffffffffffffffffffffff168152602001908152602001600020546116a390919063ffffffff16565b600560008473ffffffffffffffffffffffffffffffffffffffff1673ffffffffffffffffffffffffffffffffffffffff168152602001908152602001600020819055505050565b6000818301905082811015151561169a57fe5b80905092915050565b60008282111515156116b157fe5b818303905092915050565b828054600181600116156101000203166002900490600052602060002090601f016020900481019282601f106116fd57805160ff191683800117855561172b565b8280016001018555821561172b579182015b8281111561172a57825182559160200191906001019061170f565b5b509050611738919061173c565b5090565b61175e91905b8082111561175a576000816000905550600101611742565b5090565b9056fea165627a7a723058200fce11926d5f669a47e416baf4b86ee2f6afeac99985b094578f387e674cc1cb0029",
  "source": "pragma solidity ^0.5.0;\n\nimport \"./AccessControl.sol\";\nimport \"./SafeMath.sol\";\n\n\ncontract TokenRepository is Ownable {\n\n    using SafeMath for uint256;\n\n    // Name of the ERC-20 token.\n    string public name;\n\n    // Symbol of the ERC-20 token.\n    string public symbol;\n\n    // Total decimals of the ERC-20 token.\n    uint256 public decimals;\n\n    // Total supply of the ERC-20 token.\n    uint256 public totalSupply;\n\n    // Mapping to hold balances.\n    mapping(address => uint256) public balances;\n\n    // Mapping to hold allowances.\n    mapping (address => mapping (address => uint256)) public allowed;\n\n    /**\n    * @dev Sets the name of ERC-20 token.\n    * @param _name Name of the token to set.\n    */\n    function setName(string memory _name) public onlyOwner {\n        name = _name;\n    }\n\n    /**\n    * @dev Sets the symbol of ERC-20 token.\n    * @param _symbol Symbol of the token to set.\n    */\n    function setSymbol(string memory _symbol) public onlyOwner {\n        symbol = _symbol;\n    }\n\n    /**\n    * @dev Sets the total decimals of ERC-20 token.\n    * @param _decimals Total decimals of the token to set.\n    */\n    function setDecimals(uint256 _decimals) public onlyOwner {\n        decimals = _decimals;\n    }\n\n    /**\n    * @dev Sets the total supply of ERC-20 token.\n    * @param _totalSupply Total supply of the token to set.\n    */\n    function setTotalSupply(uint256 _totalSupply) public onlyOwner {\n        totalSupply = _totalSupply;\n    }\n\n    /**\n    * @dev Sets balance of the address.\n    * @param _owner Address to set the balance of.\n    * @param _value Value to set.\n    */\n    function setBalances(address _owner, uint256 _value) public onlyOwner {\n        balances[_owner] = _value;\n    }\n\n    /**\n    * @dev Sets the value of tokens allowed to be spent.\n    * @param _owner Address owning the tokens.\n    * @param _spender Address allowed to spend the tokens.\n    * @param _value Value of tokens to be allowed to spend.\n    */\n    function setAllowed(address _owner, address _spender, uint256 _value) public onlyOwner {\n        allowed[_owner][_spender] = _value;\n    }\n\n    /**\n    * @dev Increases the token supply.\n    * @param _value Value to increase.\n    */\n    function increaseSupply(uint256 _value) public onlyOwner {\n        totalSupply = totalSupply.add(_value);\n    }\n\n    /**\n    * @dev Increases the balance of the address.\n    * @param _owner Address to increase the balance of.\n    * @param _value Value to increase.\n    */\n    function increaseBalance(address _owner, uint256 _value) public onlyOwner {\n        balances[_owner] = balances[_owner].add(_value);\n    }\n\n    /**\n    * @dev Increases the tokens allowed to be spent.\n    * @param _owner Address owning the tokens.\n    * @param _spender Address to increase the allowance of.\n    * @param _value Value to increase.\n    */\n    function increaseAllowed(address _owner, address _spender, uint256 _value) public onlyOwner {\n        allowed[_owner][_spender] = allowed[_owner][_spender].add(_value);\n    }\n\n    /**\n    * @dev Decreases the token supply.\n    * @param _value Value to decrease.\n    */\n    function decreaseSupply(uint256 _value) public onlyOwner {\n        totalSupply = totalSupply.sub(_value);\n    }\n\n    /**\n    * @dev Decreases the balance of the address.\n    * @param _owner Address to decrease the balance of.\n    * @param _value Value to decrease.\n    */\n    function decreaseBalance(address _owner, uint256 _value) public onlyOwner {\n        balances[_owner] = balances[_owner].sub(_value);\n    }\n\n    /**\n    * @dev Decreases the tokens allowed to be spent.\n    * @param _owner Address owning the tokens.\n    * @param _spender Address to decrease the allowance of.\n    * @param _value Value to decrease.\n    */\n    function decreaseAllowed(address _owner, address _spender, uint256 _value) public onlyOwner {\n        allowed[_owner][_spender] = allowed[_owner][_spender].sub(_value);\n    }\n\n    /**\n    * @dev Transfers the balance from one address to another.\n    * @param _from Address to transfer the balance from.\n    * @param _to Address to transfer the balance to.\n    * @param _value Value to transfer.\n    */\n    function transferBalance(address _from, address _to, uint256 _value) public onlyOwner {\n        decreaseBalance(_from, _value);\n        increaseBalance(_to, _value);\n    }\n}\n",
  "sourcePath": "/home/syed-fahad-hussain/Documents/blockchain/Ethereum/projects/ico/contracts/TokenRepository.sol",
  "compiler": {
    "name": "solc",
    "version": "0.5.2+commit.1df8f40c.Emscripten.clang"
  },
  "schemaVersion": "3.0.0-beta.2",
  "updatedAt": "2019-01-18T07:43:47.416Z",
  "devdoc": {
    "methods": {
      "decreaseAllowed(address,address,uint256)": {
        "details": "Decreases the tokens allowed to be spent.",
        "params": {
          "_owner": "Address owning the tokens.",
          "_spender": "Address to decrease the allowance of.",
          "_value": "Value to decrease."
        }
      },
      "decreaseBalance(address,uint256)": {
        "details": "Decreases the balance of the address.",
        "params": {
          "_owner": "Address to decrease the balance of.",
          "_value": "Value to decrease."
        }
      },
      "decreaseSupply(uint256)": {
        "details": "Decreases the token supply.",
        "params": {
          "_value": "Value to decrease."
        }
      },
      "increaseAllowed(address,address,uint256)": {
        "details": "Increases the tokens allowed to be spent.",
        "params": {
          "_owner": "Address owning the tokens.",
          "_spender": "Address to increase the allowance of.",
          "_value": "Value to increase."
        }
      },
      "increaseBalance(address,uint256)": {
        "details": "Increases the balance of the address.",
        "params": {
          "_owner": "Address to increase the balance of.",
          "_value": "Value to increase."
        }
      },
      "increaseSupply(uint256)": {
        "details": "Increases the token supply.",
        "params": {
          "_value": "Value to increase."
        }
      },
      "renounceOwnership()": {
        "details": "Allows the current owner to relinquish control of the contract."
      },
      "setAllowed(address,address,uint256)": {
        "details": "Sets the value of tokens allowed to be spent.",
        "params": {
          "_owner": "Address owning the tokens.",
          "_spender": "Address allowed to spend the tokens.",
          "_value": "Value of tokens to be allowed to spend."
        }
      },
      "setBalances(address,uint256)": {
        "details": "Sets balance of the address.",
        "params": {
          "_owner": "Address to set the balance of.",
          "_value": "Value to set."
        }
      },
      "setDecimals(uint256)": {
        "details": "Sets the total decimals of ERC-20 token.",
        "params": {
          "_decimals": "Total decimals of the token to set."
        }
      },
      "setName(string)": {
        "details": "Sets the name of ERC-20 token.",
        "params": {
          "_name": "Name of the token to set."
        }
      },
      "setSymbol(string)": {
        "details": "Sets the symbol of ERC-20 token.",
        "params": {
          "_symbol": "Symbol of the token to set."
        }
      },
      "setTotalSupply(uint256)": {
        "details": "Sets the total supply of ERC-20 token.",
        "params": {
          "_totalSupply": "Total supply of the token to set."
        }
      },
      "transferBalance(address,address,uint256)": {
        "details": "Transfers the balance from one address to another.",
        "params": {
          "_from": "Address to transfer the balance from.",
          "_to": "Address to transfer the balance to.",
          "_value": "Value to transfer."
        }
      },
      "transferOwnership(address)": {
        "details": "Allows the current owner to transfer control of the contract to a newOwner.",
        "params": {
          "_newOwner": "The address to transfer ownership to."
        }
      }
    }
  },
  "userdoc": {
    "methods": {
      "renounceOwnership()": {
        "notice": "Renouncing to ownership will leave the contract without an owner. It will not be possible to call the functions with the `onlyOwner` modifier anymore."
      }
    }
  }
}